:030000000209C230
:0C09C200787FE4F6D8FD75816F020A0909
:0600260068656C6C6F00C0
:100AD700010C04011500011B00011C00011E280167
:100AE7001900010A1E010B14011F00080D08000060
:100AF7000000000000011A00010900010800011DA3
:060B07000A0316FF0026A0
:10083400759AFFE4F59BF5917592FF75A1FFF5A2FA
:1008440075D9FFF5DA7D02FFFE120E718F0A7D0263
:100854007F017E00120E718F0B7D027F027E0012DB
:100864000E718F1E120EB8120EA17F08120D79128E
:100874000E0743CF107F327E00120E4FAF1D1200C1
:1008840016AB16AA17A918120E2BE50CB4041743BD
:10089400CF107B007A00793D7D0A7F08120B4A1243
:1008A4000D39C2D980E4E50C701843CF10120C1333
:1008B4007B007A0079357D0A7F08120B4A120D39C4
:1008C40080E4E50C6401703543CF10E509700EFB3C
:1008D4007A00790D7D0A7F08120B4A80197B007A11
:1008E4000079357D0A7F08120B4AC3E509648094B8
:1008F400824003E4F509120D39C2D980C5E50C64C0
:1009040002708743CF10120C687B007A0079357D22
:0B0914000A7F08120B4A120D3980E226
:100E8A00EF1FAC0670011E4C600CD3EF9400EE64A9
:070E9A0080948050EB22223E
:100E4F00AB07AA06EB1BAE0270011A4E60137F961A
:100E5F007E00120E8AD3EB9400EA6480948050E4F3
:020E6F0022223D
:100EB800758E07438901758A20758CD1C28CD2A999
:050EC800D28CD2AF2224
:03000B00020CF8EC
:100CF800C0E0C0F0C083C082C0D075D000C000C0C2
:100D080001C002C003C004C005C006C007120CB56C
:100D1800758A20758CD1D007D006D005D004D003B1
:100D2800D002D001D000D0D0D082D083D0F0D0E093
:010D38003288
:100C1300E51975F00A1203E0F53CE51975F00A12BF
:100C230003E085F03BE50A75F00A1203E0F53AE5C7
:100C33000A75F00A1203E085F039E51E75F00A1211
:100C430003E0F538E51E75F00A1203E085F037E599
:100C53000B75F00A1203E0F536E50B75F00A120383
:050C6300E085F03522E0
:100C6800E51975F00A1203E0F53CE51975F00A126A
:100C780003E085F03BE51B75F00A84F53AE51B7542
:100C8800F00A8485F039E51E75F00A1203E0F5389C
:100C9800E51E75F00A1203E085F037E51C75F00AC9
:0D0CA80084F536E51C75F00A8485F03522D0
:0A0B4A008F658D668B678A688969E4
:100B5400E4F56AAD6AED3395E0FCC3ED9566748007
:100B6400F86C98504BE4F56BAD6BED3395E0FCC33A
:100B7400ED95657480F86C985032C37407956B24B6
:100B840045F8E6F5A0AB67AA68A969AF6BEF3395A2
:100B9400E08F82F5831204022429F8E6F5807F01B0
:100BA4007E00120E4FE4F5A0056B80BC056A80A39D
:010BB400221E
:100B0D000221000002230000022500000227000040
:100B1D000C29C0F9A4B0999282F88090BFFF0845C6
:100B2D000102040810204080083D0A0A0A0A0A0A38
:020B3D000A0AA2
:0100060022D7
:100BB500E50C6404600B1207378F508E4F8D4E8CF9
:100BC5004DAF50AE4FAD4EAC4DE4FBFA79207841B8
:100BD50012012E8F508E4F8D4E8C4DE4FBFA7920ED
:100BE50078411202371203128F15E51504F519C362
:100BF500951EFFD3648094804013D3EF6480948660
:0D0C0500500BE51E648094A34003851E196A
:010C120022BF
:100DAC00E50CB401020509C3E51E6480F8E5156481
:100DBC0080985003B2D922C3E51E6480F8E515640F
:100DCC008098500BE50C64046005E50CB40102C27C
:020DDC00D9221A
:100A4E00E50CB401020508C3E508648094854007EF
:100A5E00E4F50CF51AF508E50C6402706BAF0AEFBD
:100A6E003395E0FEAD1B7C00C3ED9FEE6480F87401
:100A7E0080985005051BD2D822AF0BEF3395E0FEC0
:100A8E00AB1C7A00C3EB9FEE6480F874809850051F
:100A9E00051CD29622AF0AEF3395E0FEC3ED9FEE12
:100AAE006480F8EC648098401FAF0BEF3395E0FE46
:100ABE00C3EB9FEE6480F8EA648098400BE4F51B6C
:090ACE00F51CC2D8C296F50C22F9
:100CB50043CF10C3E5249432E52364809480500823
:100CC5000524E52470020523C3E52694E3E52564A0
:100CD50080948150080526E52670020525C3E52880
:100CE50094BBE5276480948350080528E5287002A5
:030CF500052722AE
:100D3900C3E5249432E523648094804008120BB5FE
:100D4900E4F523F524C3E52694E3E525648094813D
:100D59004008120DACE4F525F526C3E52894BBE55A
:100D690027648094834008120A4EE4F527F5282267
:100EA1007591CC7592FF75BA03E4F5BB75BC03F57A
:070EB100BD43A805D2AF22EA
:0300030002045D97
:10045D00C0E0C0F0C083C082C0D075D000C000C065
:0D046D0001C002C003C004C005C006C007E6
:10047A00755D0075080043CF1030900302052FE523
:10048A000C6402700302052FE50C64047003020574
:10049A002F750C0120900F7B007A0079357D147F2F
:1004AA0008120B4A80EE051A7F147E00120E4FC303
:1004BA00E51A648094874006751A00750000755D18
:1004CA00007435255DF8E6FF740D255DF8A607056D
:1004DA005DE55DB408EBE51A24FE601C1460221485
:1004EA00602814602E146034240560030205E77541
:1004FA00110B85391F0205E775120B853A1F020594
:10050A00E7750D0B85351F0205E7750E0B85361F3E
:10051A000205E7750F0B85371F0205E775100B8576
:10052A00381F0205E73091030205E7E50C64047001
:10053A00030205E720910F7B007A0079357D147F4D
:10054A0008120B4A80EE051FC3E51F6480948A4097
:10055A0003751F00E51A24FE601514602714603A1B
:10056A0014604D14606024057073851F39800385FB
:10057A001F3AE53A75F00AA42539F50A7B02FDE42B
:10058A00FFFE8056851F35E53675F00AA42535F538
:10059A000B7B02FD7F017E008040851F36E53675A4
:1005AA00F00AA42535F50B7B02FD7F017E00802A27
:1005BA00851F37E53875F00AA42537F51E7B02FD3D
:1005CA007F027E008014851F38E53875F00AA4255D
:0D05DA0037F51E7B02FD7F027E00120DDE54
:1005E700D007D006D005D004D003D002D001D00068
:0B05F700D0D0D082D083D0F0D0E03212
:0300130002091FC0
:10091F00C0E0C0F0C083C082C0D075D000C000C09E
:10092F0001C002C003C004C005C006C00743CF10FA
:10093F00751A00751B00751C0020942320940F7BE3
:10094F00007A0079357D147F08120B4A80EEE50C92
:10095F00B40405750C008007750C04C2D8C296202C
:10096F009536E50C6404603020950F7B007A007992
:10097F00357D147F08120B4A80EEE50C6003B4013D
:10098F0005750C02800EE50CB40209751B00751C71
:10099F0000750C00C2D8C296D007D006D005D0047F
:1009AF00D003D002D001D000D0D0D082D083D0F0ED
:0309BF00D0E03253
:0100070022D6
:020B3F00C102F1
:100D7900EF4480F5ADC3EF64809488500F7401A8E7
:100D890007088002C333D8FCF5AB8011EF24F8FFC4
:100D99007401A807088002C333D8FCF5AC43A84006
:030DA900D2AF22A4
:1007370043AD403002FDC202AFAFEF75F010A4FF2A
:10074700AEF0E5AEC4540F7C002FF56DEC3EF56CB2
:10075700C374FE956DFD740F956CFCE41202D98F7E
:10076700588E578D568C557F007E407D1C7C46AB3E
:1007770058AA57A956A85512012EC004C005C0068D
:10078700C007AC6CAD6DE41202D9A804A905AA068E
:10079700AB07D007D006D005D0041202378F588E8A
:1007A700578D568C55120632C004C005C006C007C7
:1007B7007F007E407D1C7C46120632D003D002D0DB
:1007C70001D000120039E4FBFA79C8784212012EF1
:1007D7008F548E538D528C517B007AD57971783D29
:1007E70012012E8F548E538D528C51AB54AA53A99C
:1007F70052A8517F6B7E3A7D067C421200398F5496
:100807008E538D528C51AB54AA53A952A8517F00D5
:100817007E407D1C7C461202377B007A807988787F
:0C082700C312003D8F548E538D528C5133
:0108330022A2
:0300330002002C9C
:06002C0053ADEFD20232D9
:040B4100026E000040
:100DDE008E5E8F5FC2AF8DF5E55EFFEF547FF5F34C
:100DEE00855FF28BF475F1F075F6060000000000D9
:090DFE00000000E4F5F4D2AF227C
:100E7100C2AF8DF4E56F2FF582E56E3EF583E49305
:080E8100FCE4F5F4D2AFAF046C
:010E89002246
:040B4500C100C10129
:100E07005391F343920CD293759850438780E4F53E
:100E1700C8758920758E02758BD9758DD9D28ED2FA
:040E2700ACD2AF2278
:080016008F993000FDC20022A9
:060E2B008B4D8A4E894F39
:100E3100E4FDFCAB4DAA4EA94F8D828C83120402B6
:0D0E4100FF600A1200160DBD00010C80E6D6
:010E4E002281
:03002300020ECDFD
:0F0ECD00309904C299D200309804C298D20132F1
:1000360002037EE86480F8E933E83360110460F077
:10004600ED33EC337009E8FCE9FDEAFEEBFF220430
:1000560060DED3EB9FEA9EE99DE8C2E78CF0C2F72B
:1000660095F0400CE8CCF8E9CDF9EACEFAEBCFFBF7
:1000760012034985D0F05804700320D5B3E8047004
:10008600075002B2D502038892D5EC0460F7E4CC9F
:10009600C0E0C398F8603B94186008400DD0E0FBC0
:1000A600020360E4FBFAC9FC8028E830E406E4C9F0
:1000B600FBE4CAFCE830E305E4C9CACBFCE8540714
:1000C6006010F8C3E913F9EA13FAEB13FBEC13FC1F
:1000D600D8F130F52FC3E49CFCEF9BFFEE9AFEEDC2
:1000E60099FDD0E0FBEF4E4D4C701222DB0302036C
:1000F60085EC2CFCEF33FFEE33FEED33FDED30E700
:10010600EB020360EF2BFFEE3AFEED39FDD0E0FB8C
:1001160050130BBB0003020388ED13FDEE13FEEF35
:0801260013FFEC13FC0203605F
:10012E00EC4D6011E8497017ED33EC3304600DE4CB
:10013E00FCFFFEFD22E933E8330470F802037E1261
:10014E00034958046009E4CC248150062850090262
:10015E000388284003020385C0E0EB4A7044B9804F
:10016E0006D0E0FB020374EF4E701CBD8008EBFF5F
:10017E00EAFEE9FD80EBE98DF0A4FEE5F002021740
:10018E00E9CDF9EAFEEBFFEF89F0A4FCE5F0CE89AC
:10019E00F0A42EFFE435F0CD89F0A42DFEE435F069
:1001AE008067EF4E7005BD80D780C3EF8BF0A4AC97
:1001BE00F0EE8BF0A42CFCE435F0F8EF8AF0A42CD2
:1001CE00E5F038FCE433CB8DF0A42CFCE5F03BF8E5
:1001DE00EE8AF0A42CFCE5F038F8E433CF89F0A4D5
:1001EE002CFCE5F038CF3400CE89F0A42FFFE5F0DB
:1001FE003EFEE433C98DF0A42EFEE5F039CD8AF033
:10020E00A42FFFE5F03EFEE43DFD33D0E0FB5007AA
:10021E000BBB000F020388EC2CFCEF33FFEE33FE1A
:06022E00ED33FD02036048
:10023400020388EC5D046005E85904700302037E40
:10024400120349580460F6EC4860F2EC7004FDFEB9
:10025400FF22C860DB2481C85009C398600250069D
:100264000203859850CAF582E9294B4A7005AB828E
:1002740002037475F0007C1A7880C3EF9BEE9AED4C
:1002840099400DC3EF9BFFEE9AFEED99FDE842F015
:10029400DC23ACF0D0E0FFD0E0FED0E0FDAB822068
:1002A400E7101BEB60BAEC2CFCEF33FFEE33FEEDF2
:1002B40033FD020360E803F830E705C0F075F00091
:1002C400EF2FFFEE33FEED33FD40B830E7C280AAD6
:1002D40075F020800E75F010800575F0087D007EA5
:1002E400007F003392D530D50312042FEC33401035
:1002F400EF33FFEE33FEED33FDEC33FCD5F0ED22AE
:0E030400E5F0247EA2D513CC92E7CDCEFF22E9
:10031200EDD2E7CD33EC3392D524814006E4FFFEE3
:10032200FDFC22FCE4CFCECDCC24E0501174FF8042
:10033200EDC3CC13CCCD13CDCE13CECF13CF0470DF
:07034200F030D5DE02042FAC
:100602003E9248DA3ECCCCCD3F2AAAAB4000000055
:100612003F8000003F9837F03FB504F33FD744FCDA
:100622003E3172173EB172173F0515913EDE5BD91E
:10063200D2038002C203EDD2E7F8CD33EC3304706B
:100642000BBD800592D502038802037E40FBD314C2
:1006520060F2F5F07C3FEE7A00C39496C8948B402A
:10066200230AC89469C8941A401A0AC89468C8949C
:100672001F40110AC8945AC89425400805F07A0010
:10068200CDC2E7CDC0F08C598D5A8E5B8F5CEA23C8
:1006920023C0E02412F582E43406F58312044D12DD
:1006A200003DECC0E0EDC0E0EEC0E0EFC0E01204BF
:1006B2003DA859A95AAA5BAB5C120039D0E0FBD025
:1006C200E0FAD0E0F9D0E0B2E7F81202378C598DA7
:1006D2005A8E5B8F5C9006027403120393A859A989
:1006E2005AAA5BAB5C12012ED0E0600F241EF58289
:1006F200E43406F58312044D12003D8C598D5A8E56
:100702005B8F5CD0E0C3947FFDE49400FC1202D9BD
:100712007B187A727931783F12012EA859A95AAA08
:100722005BAB5C12003D30030B7BD97A5B79DE78E0
:050732003E12012E2221
:10034900E9D2E7C933E833F892D5EDD2E7CD33ECFA
:0703590033FC5002B2D52273
:10036000EC30E7100FBF000C0EBE00080DBD0004FE
:100370000BEB6014A2D5EB13FCED92E7FD2274FFAA
:10038000FCFDFEFF22E480F8A2D574FF13FC7D8003
:03039000E480EF17
:10039300C0E0EFFBEEFAEDF9ECF812012ED0E0F538
:1003A300F0EFFBEEFAEDF9ECF812043DA3A3A3A3DF
:1003B300E8C0E0E9C0E0EAC0E0EBC0E0C0F0120151
:1003C3002E12044DA3A3A3A312003DD0F0D0E0FB53
:0D03D300D0E0FAD0E0F9D0E0F8D5F0D42267
:1009CE00020834E493A3F8E493A34003F68001F203
:1009DE0008DFF48029E493A3F85407240CC8C3332A
:1009EE00C4540F4420C8834004F456800146F6DFF9
:1009FE00E4800B0102040810204080900AD7E47EA8
:100A0E00019360BCA3FF543F30E509541FFEE493ED
:100A1E00A360010ECF54C025E060A840B8E493A3B4
:100A2E00FAE493A3F8E493A3C8C582C8CAC583CADF
:100A3E00F0A3C8C582C8CAC583CADFE9DEE780BE97
:010B490000AB
:1003E000C2D530F707B2D563F0FF05F030E70CB2A5
:1003F000D5F4048463F0FF05F080018430D502F465
:020400000422D4
:10040200BB010CE58229F582E5833AF583E02250AF
:1004120006E92582F8E622BBFE06E92582F8E222F9
:0D042200E58229F582E5833AF583E4932213
:0E042F00C3E49FFFE49EFEE49DFDE49CFC22DE
:10043D00E493FC740193FD740293FE740393FF2205
:10044D00E493F8740193F9740293FA740393FB2205
:00000001FF
